:020000040800F2
:1000000000800120DD160008AD150008B3150008BA
:10001000B9150008BF150008C5150008000000004C
:10002000000000000000000000000000CB150008E8
:10003000D915000800000000E7150008F5150008B4
:100040002D1700082D1700082D1700082D17000880
:100050002D1700082D1700082D1700082D17000870
:100060002D1700082D170008011600082D1700088D
:100070002D1700082D1700082D1700082D17000850
:100080002D170008111600082D17000800000000A9
:1000900000000000000000000000000043750008A0
:1000A0002D170008251600082D1700082D17000829
:1000B0002D1700082D1700082D1700082D17000810
:1000C0002D1700082D1700082D1700082D17000800
:1000D0002D1700082D170008391600080000000031
:1000E000517500082D1700082D17000800000000AA
:1000F0000000000000000000000000002D170008B4
:10010000000000002D1700082D1700082D1700080B
:1001100000000000000000000000000000000000DF
:100120002D1700082D1700082D1700082D1700089F
:100130002D17000800000000000000000000000073
:100140000000000000000000000000002D17000863
:100150002D1700082D1700082D1700082D1700086F
:100160002D1700082D1700080000000000000000F7
:10017000000000000000000000000000000000007F
:10018000000000002D170008000000000000000023
:040190002D1700081F
:1001A00010B5054C237833B9044B13B10448AFF3B1
:1001B00000800123237010BD2408002000000000EF
:1001C0009CC5000808B5034B1BB103490348AFF3B6
:1001D000008008BD00000000280800209CC5000821
:1001E00053B94AB9002908BF00281CBF4FF0FF319E
:1001F0004FF0FF3000F074B9ADF1080C6DE904CE9A
:1002000000F006F8DDF804E0DDE9022304B07047F1
:100210002DE9F047089D04468E46002B4DD18A42B9
:10022000944669D9B2FA82F252B101FA02F3C2F1EC
:10023000200120FA01F10CFA02FC41EA030E94407D
:100240004FEA1C48210CBEFBF8F61FFA8CF708FB9E
:1002500016E341EA034306FB07F199420AD91CEB76
:10026000030306F1FF3080F01F81994240F21C81A8
:10027000023E63445B1AA4B2B3FBF8F008FB1033F0
:1002800044EA034400FB07F7A7420AD91CEB040425
:1002900000F1FF3380F00A81A74240F207816444F5
:1002A000023840EA0640E41B00261DB1D44000237A
:1002B000C5E900433146BDE8F0878B4209D9002DDE
:1002C00000F0EF800026C5E9000130463146BDE868
:1002D000F087B3FA83F6002E4AD18B4202D38242D2
:1002E00000F2F980841A61EB030301209E46002D81
:1002F000E0D0C5E9004EDDE702B9FFDEB2FA82F2D6
:10030000002A40F09280A1EB0C014FEA1C471FFA33
:100310008CFE0126200CB1FBF7F307FB131140EA1A
:1003200001410EFB03F0884208D91CEB010103F1E7
:10033000FF3802D2884200F2CB804346091AA4B2A9
:10034000B1FBF7F007FB101144EA01440EFB00FE7D
:10035000A64508D91CEB040400F1FF3102D2A645E2
:1003600000F2BB800846A4EB0E0440EA03409CE781
:10037000C6F12007B34022FA07FC4CEA030C20FA2E
:1003800007F401FA06F31C43F9404FEA1C4900FA4E
:1003900006F3B1FBF9F8200C1FFA8CFE09FB1811CB
:1003A00040EA014108FB0EF0884202FA06F20BD93E
:1003B0001CEB010108F1FF3A80F08880884240F28E
:1003C0008580A8F102086144091AA4B2B1FBF9F0D2
:1003D00009FB101144EA014100FB0EFE8E4508D9CD
:1003E0001CEB010100F1FF346CD28E456AD9023852
:1003F000614440EA0840A0FB0294A1EB0E01A14237
:10040000C846A64656D353D05DB1B3EB080261EBA4
:100410000E0101FA07F722FA06F3F1401F43C5E97E
:10042000007100263146BDE8F087C2F12003D840B4
:100430000CFA02FC21FA03F3914001434FEA1C47F6
:100440001FFA8CFEB3FBF7F007FB10360B0C43EAE8
:10045000064300FB0EF69E4204FA02F408D91CEB98
:10046000030300F1FF382FD29E422DD90238634496
:100470009B1B89B2B3FBF7F607FB163341EA034136
:1004800006FB0EF38B4208D91CEB010106F1FF3885
:1004900016D28B4214D9023E6144C91A46EA00467C
:1004A00038E72E46284605E70646E3E61846F8E60E
:1004B0004B45A9D2B9EB020864EB0C0E0138A3E757
:1004C0004646EAE7204694E74046D1E7D0467BE738
:1004D000023B614432E7304609E76444023842E7B0
:1004E000704700BF00000000000000000000000096
:1004F00001F0FF01102A2BDB10F0070F08D010F8D5
:10050000013B013A8B422DD010F0070F42B3F6D1D8
:10051000F0B441EA012141EA014122F007047FF0F1
:1005200000070023F0E80256083C85EA010586EA48
:10053000010685FA47F5A3FA87F586FA47F6A5FA84
:1005400087F68EB9EED1F0BC01F0FF0102F0070290
:1005500032B110F8013B013A83EA010313B1F8D13B
:100560000020704701387047002D06BF354603381C
:10057000073815F0010F07D1013015F4807F02BF55
:10058000013015F4C03F0130F0BC0138704700BFA6
:1005900080B400AF034B1B685B6A1846BD465DF82C
:1005A000047B7047E808002080B586B000AF786013
:1005B00007F108037A68054918460BF04DFB07F16F
:1005C0000803184607F0FAF9FEE700BFBCC50008AB
:1005D00080B58CB000AF0346FB714FF48043BB6223
:1005E0004FF490137B6248F2E8033B620E23FB77E3
:1005F0000A23BB770023FB6243E1A64AFB6A4FF460
:10060000C87101FB03F3134403F5B4731B68002B9B
:1006100000F03481FB6A4FF4C87202FB03F39D4A79
:100620001344184604F030FE0346BB61BB69002B3F
:1006300003D0F96A984806F035FFFB6A4FF4C87298
:1006400002FB03F3934A134407F1160207F1170163
:10065000184606F035F80346BB61BB69002B02D093
:100660008E4806F01FFFFB6A4FF4C87202FB03F3CB
:10067000884A134407F10F0207F11001184606F0EB
:100680003BFE0346BB61BB69002B02D0844806F0E9
:1006900009FFFB6A4FF4C87202FB03F37D4A13445F
:1006A0000021184605F05EF80346BB61BB69002BCC
:1006B00002D07C4806F0F6FEFB6A4FF4C87202FBDB
:1006C00003F3744A134401220021184605F0F2FC9A
:1006D0000346BB61BB69002B02D0734806F0E2FE03
:1006E000FB6A4FF4C87202FB03F36A4A1344012207
:1006F0000121184605F0DEFC0346BB61BB69002BF7
:1007000002D0694806F0CEFEFB79022B14D0022BF2
:100710002DDC002B02D0012B1BD028E041F69913D1
:10072000BB624FF470137B6248F2E8033B62122312
:10073000FB770E23BB771DE04FF48043BB624FF481
:1007400090137B62594B3B620E23FB770A23BB77E6
:1007500010E04FF48043BB624FF400137B6244F619
:1007600020633B620E23FB770A23BB7702E05048ED
:1007700006F098FEFB6A4FF4C87202FB03F3454A89
:100780001344BA6A0121184605F098FD0346BB617F
:10079000BB69002B02D0474806F084FEFB6A4FF489
:1007A000C87202FB03F33B4A13447A6A00211846DD
:1007B00005F084FD0346BB61BB69002B02D03D48B8
:1007C00006F070FEFB6A4FF4C87202FB03F3314A75
:1007D0001344396A184605F0A1F80346BB61BB69AA
:1007E000002B02D0344806F05DFEFB6A4FF4C8725D
:1007F00002FB03F3274A1344FA7F0021184605F051
:1008000009F90346BB61BB69002B02D02B4806F0F7
:1008100049FEFB6A4FF4C87202FB03F31D4A1344FE
:10082000BA7F0121184605F0F5F80346BB61BB69A4
:10083000002B02D0214806F035FEFB6A4FF4C87247
:1008400002FB03F3134A134407F1160207F11701E1
:10085000184605F035FF0346BB61BB69002B02D08B
:100860000E4806F01FFE0B4AFB6A4FF4C87101FBED
:1008700003F3134403F5BE7301221A60FB6A0133CC
:10088000FB62FB6A022B7FF7B8AE00BF00BF3037B8
:10089000BD4680BD08000020C4C50008E4C50008AE
:1008A0000CC6000838C6000858C60008400D0300F2
:1008B0007CC600088CC60008B0C60008E8C6000860
:1008C00080B483B000AF786039603B681B7E002B3A
:1008D00024D17B68D3F87C31002B0AD07B680022BE
:1008E000C3F87C213B681B891A467B68C3F87821D2
:1008F00018E07B68D3F878310D4A126803FB02F2E6
:100900000B4B1B68C3F580733968098901FB03F33E
:1009100013441A127B68C3F8782103E07B68012234
:10092000C3F87C2100BF0C37BD465DF8047B7047DF
:100930000400002090B58DB002AF78600B46FB70CC
:1009400000237B610023BB6100233B620023FB612A
:100950001EE07A683B6A42FA03F303F00103002BBE
:1009600013D05F4A3B6A4FF4C87101FB03F3134491
:1009700003F5B4731B68002B07D0FB690133FB61DF
:10098000FB69012B01D13B6ABB613B6A01333B62CE
:100990003B6A022BDDDDFB69002B02D14FF0FF33F8
:1009A0009AE0FB69012B59DD00233B6252E04C4A7F
:1009B0003B6A4FF4C87101FB03F3134403F5B473AE
:1009C0001B68002B42D07A683B6A42FA03F303F0BB
:1009D0000103002B3AD03B6A4FF4C87202FB03F3C9
:1009E0003F4A13443F49184606F0BCF903467B6270
:1009F0007B6A002B02D00220FFF7D6FD384A3B6A03
:100A00004FF4C87101FB03F3134403F5B2731C6880
:100A1000FFF7BEFD0246334B1B7E1846314B1B8948
:100A20001946304BDB6801930091034621462E485E
:100A300006F038FD3B6A4FF4C87202FB03F3284A04
:100A4000134428491846FFF73BFF00E000BF3B6A0C
:100A500001333B623B6A022BA9DD3CE0BB694FF4EA
:100A6000C87202FB03F31E4A13441E49184606F0DF
:100A700079F903467B627B6A002B27D1184ABB6950
:100A80004FF4C87101FB03F3134403F5B2731C6800
:100A9000FFF77EFD0246134B1B7E1846114B1B8948
:100AA0001946104BDB6801930091034621460E481E
:100AB00006F0F8FCBB694FF4C87202FB03F3084A66
:100AC000134408491846FFF7FBFE02E00120FFF738
:100AD0006BFD012300E07B6A18462C37BD4690BDB4
:100AE000080000201C0A00200CC7000880B588B050
:100AF00000AF4EF6AA637B816B4A3B1D92E8030070
:100B0000186004331970694B00221A600023FB61DE
:100B100007E00021F86900F0DBF8B861FB690133F8
:100B2000FB61FB69022BF4DD02200BF031F801239D
:100B3000FB61A6E0FB694FF4C87202FB03F35C4A59
:100B400013443B613B69522283F860213B690022D8
:100B5000C3F868213B69D3F864310121184600F0DD
:100B6000B7F8B86102200BF013F8FB695A1C134662
:100B70009B0013445233FB60BB69002B06D100225B
:100B80008821386906F08AFD0346BB6107F10A0334
:100B90001A46C021386906F02DFE0346BB61BB69C9
:100BA000002B04D0F969434806F07CFC5FE07B89A8
:100BB0004EF6AA62934252D1FB68DBB219463869FD
:100BC00004F090F90346BB61BB69002B04D0F969BE
:100BD000394806F067FC4AE0FB68DAB23B6983F803
:100BE000602107F10A031A46C021386906F002FEA7
:100BF0000346BB61BB69002B04D0F9692F4806F09E
:100C000051FC34E0386904F0B1F90346BB61BB69BB
:100C1000002B1FD13B690122C3F868213B69D3F83F
:100C200064113B6993F860311A46254806F03AFC96
:100C30001E4B1B6801331D4A13600122FB699A4059
:100C4000204B1B6813431F4A13603B690122C3F802
:100C500068210CE0F9691C4806F024FC07E07B8958
:100C60001A46F969194806F01DFC0123BB61BB69EE
:100C7000002B03D00021F86900F02AF8FB69013B42
:100C8000FB61FB69002BBFF655AF084B1B687B610E
:100C90007B69002B03DC4FF0FF30FFF785FC00BFC2
:100CA0002037BD4680BD00BFCCC70008380A0020F1
:100CB000080000201CC7000830C7000854C70008FF
:100CC00088C700083C0A00206CC70008B8C70008A5
:100CD00080B582B000AF78600B46FB707B68002B5C
:100CE00003D07B68012B07D00DE0FB781A4610215A
:100CF000074807F063FD06E0FB781A462021044808
:100D000007F05CFD00BF002318460837BD4680BDD4
:100D10000008024080B582B000AF0023FB710023C1
:100D2000BB710AF0C3FE00F031F800F0BFF900F02B
:100D30009DF900F097F800F06FF900F0EFF800F07F
:100D400047F900F0BDF80F4806F0ACFB4FF42570F2
:100D50000AF01EFF002300220021002006F00CFBF9
:100D6000FFF7C4FEFB791846FFF732FC064B1B6801
:100D700000211846FFF7DEFD4FF47A700AF008FFF5
:100D8000F4E700BFB80400200000002080B594B054
:100D900000AF07F120033022002118460AF054FF6B
:100DA00007F10C0300221A605A609A60DA601A6137
:100DB0000023BB60294B1B6C284A43F0805313640B
:100DC000264B1B6C03F08053BB60BB6800237B6029
:100DD000234B1B6823F44043214A43F40043136030
:100DE0001F4B1B6803F440437B607B6802233B621C
:100DF0000123FB6210233B630223BB630023FB63DD
:100E000010233B644FF4A8737B640423BB64072363
:100E1000FB6407F12003184608F098FC0346002BFA
:100E200001D000F0EFF90F23FB6002233B610023A8
:100E30007B614FF48053BB610023FB6107F10C031E
:100E40000221184608F0FAFE0346002B01D000F0FC
:100E5000D9F900BF5037BD4680BD00BF0038024001
:100E60000070004080B500AF124B134A1A60114B5E
:100E7000124A5A600F4B00229A600E4B0022DA6031
:100E80000C4B4FF480421A610A4B00225A61094B05
:100E900000229A61074B0022DA61064B00221A6297
:100EA000044807F0BDFC0346002B01D000F0AAF96E
:100EB00000BF80BD4008002000540040801A06009A
:100EC00080B500AF124B134A1A60114B124A5A6098
:100ED0000F4B00229A600E4B0022DA600C4B4FF44D
:100EE00080421A610A4B00225A61094B00229A6122
:100EF000074B0022DA61064B00221A62044807F011
:100F00008FFC0346002B01D000F07CF900BF80BDB0
:100F100094080020005C0040801A060080B58AB06A
:100F200000AF07F1200300221A605A603B1D002227
:100F30001A605A609A60DA601A615A619A61224BAB
:100F4000224A1A60204B53225A601F4B00229A609B
:100F50001D4B4FF0FF32DA601B4B00221A611A4B17
:100F600080229A61184809F05AF90346002B01D0F3
:100F700000F048F900233B6200237B6207F1200365
:100F80001946114809F07AF80346002B01D000F009
:100F900039F900237B600023BB600023FB60002342
:100FA0007B613B1D00221946074809F08FFA034672
:100FB000002B01D000F026F9034800F03BFA00BFF7
:100FC0002837BD4680BD00BFE8080020000C004067
:100FD00080B500AF0E4B0F4A1A600D4B42F20F72F4
:100FE0005A600B4B00229A60094B42F2CF02DA6042
:100FF000074B00221A61064B80229A61044809F0CF
:10100000BFF80346002B01D000F0FCF800BF80BD04
:10101000300900200044014080B500AF114B124A56
:101020001A60104B4FF4E1325A600E4B00229A6066
:101030000C4B0022DA600B4B00221A61094B0C2288
:101040005A61084B00229A61064B0022DA6105487A
:1010500009F0CCFC0346002B01D000F0D3F800BF10
:1010600080BD00BF780900200044004080B582B0F8
:1010700000AF00237B600C4B1B6B0B4A43F4001347
:101080001363094B1B6B03F400137B607B68002226
:101090000021112006F0D5FD112006F0EEFD00BF65
:1010A0000837BD4680BD00BF0038024080B58AB019
:1010B00000AF07F1140300221A605A609A60DA60E8
:1010C0001A6100233B61414B1B6B404A43F0040310
:1010D00013633E4B1B6B03F004033B613B6900232E
:1010E000FB603A4B1B6B394A43F080031363374B69
:1010F0001B6B03F08003FB60FB680023BB60334B7A
:101100001B6B324A43F001031363304B1B6B03F03C
:101110000103BB60BB6800237B602C4B1B6B2B4A1D
:1011200043F002031363294B1B6B03F002037B6044
:101130007B6800222021264807F040FB0022102176
:10114000244807F03BFB42F220037B610023BB6194
:101150000023FB6107F1140319461E4807F0AAF9A2
:1011600010237B614FF48813BB610123FB6107F1FE
:1011700014031946164807F09DF920237B610123CB
:10118000BB610023FB6100233B6207F11403194696
:101190000F4807F08FF910237B610123BB61002307
:1011A000FB6100233B6207F114031946094807F06D
:1011B00081F9002200210A2006F043FD0A2006F0F2
:1011C0005CFD00BF2837BD4680BD00BF003802402F
:1011D000000002400008024080B582B000AF786095
:1011E0007B68064A934205D1054B1B6800211846CF
:1011F000FFF7A0FB00BF0837BD4680BD30090020C7
:101200000000002080B400AF72B600BFFEE700000F
:1012100080B582B000AF00237B60104B5B6C0F4A3F
:1012200043F4804353640D4B5B6C03F480437B6059
:101230007B6800233B60094B1B6C084A43F08053DA
:101240001364064B1B6C03F080533B603B68072024
:1012500006F0ECFC00BF0837BD4680BD00380240F8
:1012600080B58CB000AF786007F11C0300221A60D3
:101270005A609A60DA601A617B681B68424A93423E
:101280002DD10023BB61414B1B6B404A43F002034D
:1012900013633E4B1B6B03F00203BB61BB694FF44E
:1012A0004073FB6112233B6200237B620023BB621D
:1012B0000423FB6207F11C031946354807F0FAF8CE
:1012C00000237B61314B1B6C304A43F400131364E1
:1012D0002E4B1B6C03F400137B617B6950E07B6831
:1012E0001B682C4A93424BD100233B61274B1B6B5D
:1012F000264A43F004031363244B1B6B03F00403DF
:101300003B613B690023FB60204B1B6B1F4A43F092
:10131000010313631D4B1B6B03F00103FB60FB68B0
:101320004FF40073FB6112233B6200237B620323B3
:10133000BB620423FB6207F11C031946164807F041
:10134000B9F84FF48073FB6112233B6200237B6288
:101350000323BB620423FB6207F11C0319460F48F9
:1013600007F0A8F80023BB60084B1B6C074A43F446
:1013700000031364054B1B6C03F40003BB60BB68E4
:1013800000BF3037BD4680BD0054004000380240E9
:1013900000040240005C00400008024000000240DF
:1013A00080B485B000AF78607B681B680B4A9342BD
:1013B0000DD10023FB600A4B1B6C094A43F0080364
:1013C0001364074B1B6C03F00803FB60FB6800BF52
:1013D0001437BD465DF8047B704700BF000C004029
:1013E0000038024080B584B000AF78607B681B682D
:1013F0000E4A934215D10023FB600D4B5B6C0C4AE7
:1014000043F4003353640A4B5B6C03F40033FB601A
:10141000FB6800220021192006F013FC192006F0B9
:101420002CFC00BF1037BD4680BD00BF004401400A
:101430000038024080B588B000AF786007F10C0337
:1014400000221A605A609A60DA601A617B681B6831
:10145000124A93421DD10023BB60114B1B6B104AF3
:1014600043F0010313630E4B1B6B03F00103BB60DE
:10147000BB680123FB6002233B6100237B610023E7
:10148000BB610223FB6107F10C031946054807F015
:1014900011F800BF2037BD4680BD00BF000C0040E2
:1014A000003802400000024080B58AB000AF78608A
:1014B00007F1140300221A605A609A60DA601A6118
:1014C0007B681B68344A934261D100233B61334BF4
:1014D0001B6C324A43F400331364304B1B6C03F42F
:1014E00000333B613B690023FB602C4B1B6B2B4A99
:1014F00043F001031363294B1B6B03F00103FB60F3
:10150000FB680C237B610223BB610023FB61032387
:101510003B6207237B6207F114031946204806F05B
:10152000C9FF204B204A1A601E4B4FF000625A60E0
:101530001C4B40229A601B4B0022DA60194B4FF47F
:1015400080621A61174B00225A61164B00229A6181
:10155000144B0022DA61134B00221A62114B002255
:101560005A62104806F0A4FB0346002B01D0FFF797
:1015700049FE7B680B4A5A630A4A7B6893630022E0
:101580000021262006F05DFB262006F076FB00BF3A
:101590002837BD4680BD00BF0044004000380240EF
:1015A00000000240BC090020A060024080B400AFEF
:1015B000FEE780B400AFFEE780B400AFFEE780B482
:1015C00000AFFEE780B400AFFEE780B400AF00BF1D
:1015D000BD465DF8047B704780B400AF00BFBD46D8
:1015E0005DF8047B704780B400AF00BFBD465DF876
:1015F000047B704780B500AF0AF0AAFA00BF80BD37
:1016000080B500AF102007F0F3F800BF80BD0000E8
:1016100080B500AF024806F0E3FC00BF80BD00BF0C
:10162000BC09002080B500AF024808F047FE00BFAB
:1016300080BD00BF3009002080B500AF024809F02E
:10164000A1FA00BF80BD00BF7809002080B586B038
:1016500000AF7860144A154BD31A7B617B693B61FC
:10166000134B1B68002B02D1114B124A1A60104B0E
:101670001A687B6813443A699A4207D20AF0ACFAB6
:1016800003460C221A604FF0FF3309E0084B1B6839
:10169000FB60074B1A687B681344054A1360FB68BC
:1016A00018461837BD4680BD0080012000040000A8
:1016B000400A0020000C002080B400AF064BD3F895
:1016C0008830054A43F47003C2F8883000BFBD4635
:1016D0005DF8047B704700BF00ED00E0DFF834D018
:1016E0000D480E490E4A002302E0D458C45004337A
:1016F000C4188C42F9D30B4A0B4C002301E0136051
:101700000432A242FBD3FFF7D7FF0AF06BFAFFF7D0
:1017100001FB704700800120000000202408002009
:1017200004D0000824080020000C0020FEE780B54B
:1017300084B000AF786039600023FB7340F2FF7320
:10174000BB814FF480537B8107F108031A4628219F
:10175000786806F04FF80346FB7397F90F30002BBB
:101760001ED13B89C3F30B039BB23B813B891A46D5
:10177000B7F90C309A420BDD3A897B89D31A9BB2B8
:101780001BB21A46FA2303FB02F23B681A6007E019
:101790003B891BB21A46FA2303FB02F23B681A602C
:1017A00097F90F3018461037BD4680BD80B48BB016
:1017B00000AFF860B9607A603B600823BB6100232A
:1017C000BB773B684FF0FF321A607A68BB69B2FBA7
:1017D000F3F37B617B68BA69B3FBF2F2B96901FB91
:1017E00002F29B1A3B617B697B6230E000233B6223
:1017F000FA687B6A13441B78FB777A6A7B699A42A2
:101800001ED1FA7F3B6942FA03F3FB773B693B62E7
:1018100016E0FB7F03F00103002B0BD00123BB7705
:101820007B6ABA6903FB02F23B6A13441A463B68BF
:101830001A6009E0FB7F5B08FB773B6A01333B6280
:101840003A6ABB699A42E4D37B6A01337B627A6A63
:10185000BB689A4202D2BB7F002BC7D000BF2C3797
:10186000BD465DF8047B704780B485B000AF7860FA
:101870000123FB737B689B09BB60074ABB6852F876
:101880002330002B01D10023FB73FB7B1846143758
:10189000BD465DF8047B7047E804002080B489B041
:1018A00000AFF860B9607A600023FB770823BB6162
:1018B0007A68BB69B2FBF3F37B617B68BA69B3FBFF
:1018C000F2F2B96901FB02F29B1A3B617A69BB68CB
:1018D0009A4202D3CE23FB7710E0FA687B69134467
:1018E0001B785AB201213B6901FA03F35BB213433F
:1018F00059B2FA687B691344CAB21A7097F91F305B
:1019000018462437BD465DF8047B704780B584B027
:1019100000AF7860396006233A68B021786805F036
:1019200061FE0346FB7397F90F3018461037BD462A
:1019300080BD80B584B000AF7860396006233A6816
:10194000B021786805F07EFE0346FB7397F90F30EF
:1019500018461037BD4680BD80B58CB000AFF8602A
:101960007A603B600B46FB72002387F82F303B6C9C
:10197000FB613B6C3B620023BB622BE007F11C0365
:101980003A6AB96B7868FFF711FFFB69B3F1FF3F63
:1019900003D1CE2387F82F3020E0FB691A46FB6B7A
:1019A00013441846FFF760FF03461A46FB7A93423A
:1019B00003D0CE2387F82F3010E0FB693B623A6AF0
:1019C000B96B3868FFF76AFF3B6A01333B62BB6A59
:1019D0000133BB62BA6A7B6C9A42CFD3BB6C3A6A62
:1019E0001A6097F92F30002B06D13968F868FFF795
:1019F0008DFF034687F82F3097F92F30002B21D128
:101A000007F114031946F868FFF793FF034687F8B8
:101A10002F3000237B6211E03A687B6A13441A7806
:101A200007F114017B6A0B441B789A4203D0CE2342
:101A300087F82F3006E07B6A01337B627A6ABB6BE2
:101A40009A42E9D397F92F3018463037BD4680BD0A
:101A500080B58AB000AF78603960002387F82730FE
:101A6000002387F826307B6893F8303187F82630DA
:101A700097F92730002B07D1C0220121786805F0A3
:101A80000DFE034687F8273097F92730002B08D141
:101A900007F108031946786805F064F9034687F8EA
:101AA000273097F92730002B07D10122FF217868D2
:101AB00005F0F4FD034687F8273097F92730002B0F
:101AC00007D13A68B621786805F094FE034687F896
:101AD000273097F92730002B07D10022FF217868A3
:101AE00005F0DCFD034687F8273097F92730002BF7
:101AF00012D197F826301A460121786805F0CEFDFC
:101B0000034687F8273097F92730002B04D17B68EC
:101B100097F8262083F8302197F927301846283780
:101B2000BD4680BD90B59DB006AFF860B9607A60E3
:101B3000002387F85730B42387F83A3003237B63B8
:101B40002C233B6300233B650023BB6100237B61A7
:101B50004FF42063FB850023FB640023BB64062352
:101B6000BB6200237B6200237B64002387F8433041
:101B700000237B7400233B740023FB63002387F85E
:101B80003B30FB68B3F83C31FB850023BB6409E0C4
:101B9000FA68BB6C134403F5927300221A70BB6C95
:101BA0000133BB64BA6CBB6A9A42F1D30122FF21B4
:101BB000F86805F073FD034687F8573097F95730FA
:101BC000002B07D100224F21F86805F067FD03467E
:101BD00087F8573097F95730002B07D12C224E2128
:101BE000F86805F05BFD034687F8573097F95730E2
:101BF000002B07D10022FF21F86805F04FFD0346B6
:101C000087F8573097F95730002B09D197F83A30B9
:101C10001A46B621F86805F041FD034687F85730AB
:101C200097F95730002B07D100228021F86805F082
:101C300035FD034687F8573097F95730002B0AD106
:101C400007F1100207F111010023F86800F0BBFB57
:101C5000034687F8573097F95730002B21D10023DE
:101C60003B653B6DBB610023FB64FB6CD9B2FB6839
:101C700003F59570FB6803F5927497F83A3007F115
:101C8000180204927A6B03923A6D02920193BB6A36
:101C9000009323460246F868FFF75EFE034687F886
:101CA000573097F95730002B74D1BB693B6507F16A
:101CB00012031946F868FFF7CBFE034687F8573042
:101CC00097F95730002B61D17B8AFA8D9A425DD209
:101CD0000023BB6409E0FA68BB6C134403F59273FC
:101CE00000221A70BB6C0133BB64BA6CBB6A9A42A7
:101CF000F1D302E03B6D01333B6597F83A203B6D31
:101D000013441846FFF7B0FD0346002B03D13A6D8C
:101D10003B6B9A42EED30123FB64FB6CD9B2FB68A8
:101D200003F59570FB6803F5927497F83A3007F164
:101D3000180204927A6B03923A6D02920193BB6A85
:101D4000009323460246F868FFF706FE034687F82D
:101D5000573097F95730002B1BD1BB693B6507F112
:101D600012031946F868FFF773FE034687F85730E9
:101D700097F95730002B0CD17B8AFA8D9A4208D202
:101D8000012387F83B307B6BFB6302E00023FB649D
:101D900000E000BF97F95730002B40F0AF807B8AFE
:101DA000FA8D9A4240F2AA80FB6C87F83B307B6B3D
:101DB000FB63FB6803F5927107F11C03BA6A1846CE
:101DC00009F034FF7B8A1A46FB8DD31A002BB8BF6B
:101DD0005B427B64002387F8433086E0FB6803F5B1
:101DE000957007F114033A6DB96AFFF7DFFC7B6960
:101DF000B3F1FF3F03D1CE2387F857307EE097F849
:101E00003A307A6913441846FFF72EFD03461A4606
:101E1000FB6C934203D0012387F843306EE0FB6BE9
:101E20000133FB637B693B65FB6803F592733A6D95
:101E3000B96A1846FFF732FD034687F8573097F91D
:101E40005730002B0CD13B6D01333B65FB6803F52C
:101E500092731946F868FFF759FD034687F8573023
:101E600097F95730002B46D107F112031946F8684D
:101E7000FFF7EEFD034687F8573097F95730002BF0
:101E80003BD17B8A1A46FB8DD31A002BB8BF5B422D
:101E90007B627B8AFA8D9A421CD27A6A7B6C9A4268
:101EA00014D907F11C031946F868FFF72FFD034604
:101EB00087F85730FB6803F5927307F11C01BA6A83
:101EC000184609F0B3FEFB6B013BFB63012387F867
:101ED00043300AE07B6A7B64FB6803F5927107F18B
:101EE0001C03BA6A184609F0A1FE97F84330002B8C
:101EF0003FF474AF02E000BF00E000BF97F9573035
:101F0000002B15D1BB68FA6B1A607B6897F83B20F1
:101F10001A70FB68012283F81521BB681B68DAB2CE
:101F2000FB6883F813217B681A78FB6883F8142117
:101F300097F9573018465C37BD4690BD90B593B0C1
:101F400006AFF860B9601346FB71002387F82F30A5
:101F50000023BB62B42387F823300623FB612C23C4
:101F6000BB610122FF21F86805F098FB034687F862
:101F70002F3097F92F30002B07D100224F21F8681E
:101F800005F08CFB034687F82F3097F92F30002B94
:101F900007D12C224E21F86805F080FB034687F814
:101FA0002F3097F92F30002B07D10022FF21F8683E
:101FB00005F074FB034687F82F3097F92F30002B7C
:101FC00009D197F823301A46B621F86805F066FB68
:101FD000034687F82F3000237B6209E0FA687B6AAA
:101FE000134403F5927300221A707B6A01337B62FB
:101FF0007A6AFB699A42F1D3FB79002B11D002E097
:10200000BB6A0133BB6297F82320BB6A13441846AE
:10201000FFF72AFC0346002B03D1BA6ABB699A4238
:10202000EED3FB6803F59570FB6803F5927497F89F
:102030002330F97907F114020492BA680392BA6A5C
:1020400002920193FB69009323460246F868FFF76A
:1020500083FC034687F82F3097F92F30002B0CD1E3
:10206000FB68012283F81521BB68DAB2FB6883F8AC
:102070001321FB68FA7983F8142197F92F30184659
:102080003437BD4690BD80B584B000AF78600B4654
:10209000FB700023FB7397F90F30002B0AD1FB78FC
:1020A00043F00103DBB21A460021786805F0F6FA26
:1020B0000346FB7397F90F30002B04D1786800F0CA
:1020C000BFF90346FB7397F90F30002B05D10021B0
:1020D000786805F057F80346FB7397F90F30002B2B
:1020E00006D100220021786805F0D8FA0346FB7378
:1020F00097F90F3018461037BD4680BD80B584B0C3
:1021000000AF7860084611461A460346FB700B463E
:10211000BB7013467B700023FB730023BB7301224B
:10212000FF21786805F0BAFA03461A46FB7B134391
:10213000FB7300220021786805F0B0FA03461A46C6
:10214000FB7B1343FB730022FF21786805F0A6FA9E
:1021500003461A46FB7B1343FB73FB78002B1ED010
:1021600097F82030002B09D0BA69CB21786805F0A8
:1021700017FB03461A46FB7B1343FB7397F8243087
:10218000002B2AD007F10E031A46EE21786805F0DD
:1021900007FB03461A46FB7B1343FB731DE097F8CE
:1021A0002030002B0AD0BB781A46CB21786805F086
:1021B00075FA03461A46FB7B1343FB7397F82430EA
:1021C000002B0AD07B788022EE21786805F0B4FAE3
:1021D00003461A46FB7B1343FB730122FF217868F9
:1021E00005F05CFA03461A46FB7B1343FB7301229E
:1021F0000021786805F052FA03461A46FB7B134328
:10220000FB730022FF21786805F048FA03461A465E
:10221000FB7B1343FB73BB7B23F01003DAB2FB6938
:102220001A7097F90F3018461037BD4680BD80B53B
:102230008AB004AFF860B96011461A460B46FB71CC
:102240001346BB710023FB750023BB7500237B7510
:1022500000233B750023FB74BB79002B03D0FB6884
:1022600093F83031BB7501220121F86805F016FAA8
:102270000346FB7597F91730002B05D14021F8680C
:10228000FFF701FF0346FB7597F91730002B15D1B7
:10229000FB79012B12D1397D7A7D00230393012331
:1022A000029307F113030193BB6800930B460121CE
:1022B000F868FFF723FF0346FB7502E0BB680022C6
:1022C0001A7097F91730002B12D1BB79002B0FD061
:1022D000BB7D1A460121F86805F0E0F90346FB755D
:1022E00097F91730002B03D1FB68BA7D83F83021B2
:1022F00097F9173018461837BD4680BD80B58AB0AB
:1023000004AFF860B96011461A460B46FB711346DC
:10231000BB710023FB750023BB7500237B75002375
:102320003B75BB79002B03D0FB6893F83031BB754C
:1023300002220121F86805F0B1F90346FB7597F90F
:102340001730002B05D10021F868FFF79CFE0346EB
:10235000FB7597F91730002B15D1FB79012B12D1A2
:10236000397D7A7D0123039300230293BB68019397
:1023700007F1130300930B460121F868FFF7BEFE37
:102380000346FB7502E0BB6800221A7097F917300C
:10239000002B12D1BB79002B0FD0BB7D1A46012137
:1023A000F86805F07BF90346FB7597F91730002BA9
:1023B00003D1FB68BA7D83F8302197F917301846AE
:1023C0001837BD4680BD80B586B000AFF860B960F3
:1023D0007A60FB700023FB750023BB75FB6893F8E4
:1023E0003031BB75FA780023B968F868FFF71FFF32
:1023F0000346FB7597F91730002B07D1FA780023B5
:102400007968F868FFF77AFF0346FB7597F917308C
:10241000002B0FD1BB7D1A460121F86805F03EF96B
:102420000346FB7597F91730002B03D1FB68BA7D83
:1024300083F8302197F9173018461837BD4680BD0C
:1024400090B58BB004AF78600023FB750023FB735D
:10245000254B1C6809F090FB03461A46234B019359
:102460000092234B6FF000422146012004F0A4FFAC
:1024700000233B6107F10F031946786804F0B6FAB0
:102480000346FB7597F91730002B10D1FB7B012B0E
:102490000FD03B6901333B613B69B3F5FA6F02D35F
:1024A000F923FB7506E0786805F018FAE2E700BF4B
:1024B00000E000BF0C4B1C6809F05EFB03461A46A7
:1024C00097F917300293094B01930092094B6FF073
:1024D00000422146012004F06FFF97F9173018469B
:1024E0001C37BD4690BD00BFA4070020E0C800080F
:1024F000D4C70008E8C7000880B485B000AF034621
:10250000FB710023FB73FB790133DBB25B00FB73D0
:10251000FB7B18461437BD465DF8047B704780B4DA
:1025200085B000AF0346FB710023FB73FB795B08AA
:10253000DBB2013BFB73FB7B18461437BD465DF8ED
:10254000047B704780B485B000AF78600023FB60E7
:102550004FF08043BB6002E0BB689B08BB60BA6879
:102560007B689A42F8D817E0FA68BB6813447A6827
:102570009A420BD3FA68BB6813447A68D31A7B601B
:10258000FB685B08BA681344FB6002E0FB685B0809
:10259000FB60BB689B08BB60BB68002BE4D1FB6899
:1025A00018461437BD465DF8047B704790B58BB074
:1025B00004AF78600023FB752F4B1C6809F0DCFA30
:1025C00003461A462D4B019300922D4B6FF00042AB
:1025D0002146012004F0F0FE00228321786805F0F6
:1025E0005DF803461A46FB7D1343FB7597F91730D8
:1025F000002B1ED100233B6107F10F031A468321F4
:10260000786805F0CDF80346FB75FB7B002B0AD1FB
:1026100097F91730002B06D13B6901333B613B69C9
:10262000B3F5FA6FE8D33B69B3F5FA6F01D3F92339
:10263000FB7501228321786805F030F803461A46BD
:10264000FB7D1343FB750C4B1C6809F095FA0346A0
:102650001A4697F917300293084B01930092094BE1
:102660006FF000422146012004F0A6FE97F91730D2
:1026700018461C37BD4690BDA407002008C90008B5
:10268000D4C70008E8C7000890B59DB004AF7860D3
:102690000B46FB70002387F85F30002387F85E301D
:1026A000002387F85D300023BB6200237B62002398
:1026B000BB640023A7F85A304FF4C8537B6400234F
:1026C0007B6500233B6500233B649B4B1C6809F042
:1026D00053FA03461A46994B01930092984B6FF0B8
:1026E00000422146012004F067FE7B6893F8F03039
:1026F00087F83F3097F83F30072B00F01084012215
:102700008021786804F0CAFF03461A4697F85F30C4
:10271000134387F85F300122FF21786804F0BEFF81
:1027200003461A4697F85F30134387F85F3000225C
:102730000021786804F0B2FF03461A4697F85F302C
:10274000134387F85F300622FF21786804F0A6FF64
:1027500003461A4697F85F30134387F85F3007F156
:1027600037031A468321786805F01AF803461A469B
:1027700097F85F30134387F85F3097F8373043F0AE
:102780000403DBB21A468321786804F087FF03460E
:102790001A4697F85F30134387F85F300722FF210E
:1027A000786804F07BFF03461A4697F85F301343BE
:1027B00087F85F3001228121786804F06FFF0346BB
:1027C0001A4697F85F30134387F85F30786805F052
:1027D00085F803461A4697F85F30134387F85F3051
:1027E00001228021786804F059FF03461A4697F8C1
:1027F0005F30134387F85F30FB7803F00103002B51
:1028000000F0A08097F83F3003F00103002B40F068
:1028100099806B229421786804F040FF03461A46A1
:1028200097F85F30134387F85F307868FFF7BEFE94
:1028300003461A4697F85F30134387F85F3007F175
:1028400030031A469021786805F00CF803461A46C2
:1028500097F85F30134387F85F303B6B1B0ADBB29E
:1028600003F07F0387F85E303B6BDB0BDBB203F0DA
:10287000010387F85D3024229421786804F00EFF6C
:1028800003461A4697F85F30134387F85F3078683D
:10289000FFF78CFE03461A4697F85F30134387F81C
:1028A0005F3007F130031A469021786804F0DAFFB0
:1028B00003461A4697F85F30134387F85F303B6B47
:1028C0001B0EDBB23B723B6B1B0CDBB27B723B6BB8
:1028D0001B0ADBB2BB723B6BDBB2FB72252294217D
:1028E000786804F0DBFE03461A4697F85F3013431E
:1028F00087F85F307868FFF759FE03461A4697F865
:102900005F30134387F85F3007F130031A46902198
:10291000786804F0A7FF03461A4697F85F30134320
:1029200087F85F303B6B1B0EDBB23B733B6B1B0CC2
:10293000DBB27B7306E000BFA407002024C90008B7
:10294000D4C70008FB7803F00203002B00F0898154
:1029500097F83F3003F00203002B40F082810222FF
:102960009421786804F09AFE03461A4697F85F307F
:10297000134387F85F307868FFF718FE03461A465E
:1029800097F85F30134387F85F3007F12F031A463B
:102990009021786804F004FF03461A4697F85F30E8
:1029A000134387F85F307B229421786804F076FE29
:1029B00003461A4697F85F30134387F85F3078680C
:1029C000FFF7F4FD03461A4697F85F30134387F884
:1029D0005F3007F12E031A469021786804F0E0FE7C
:1029E00003461A4697F85F30134387F85F30772223
:1029F0009421786804F052FE03461A4697F85F3037
:102A0000134387F85F307868FFF7D0FD03461A4616
:102A100097F85F30134387F85F3007F130031A46A9
:102A20009021786804F01EFF03461A4697F85F303D
:102A3000134387F85F303B6B5B0EDBB203F07F0321
:102A4000DBB23B743B6B9B0CDBB203F07F03DBB26E
:102A50007B743B6BDB0ADBB203F07F03DBB2BB743E
:102A60003B6B1B09DBB203F07F03DBB2FB743B6BF8
:102A7000DBB2DB00DBB203F07803DBB287F8373080
:102A800078229421786804F009FE03461A4697F8E4
:102A90005F30134387F85F307868FFF787FD0346A0
:102AA0001A4697F85F30134387F85F3007F1300319
:102AB0001A469021786804F0D5FE03461A4697F826
:102AC0005F30134387F85F303B6B5B0FDBB203F083
:102AD0007F03DAB297F837301344DBB23B753B6BB8
:102AE0009B0DDBB203F07F03DBB27B753B6BDB0B33
:102AF000DBB203F07F03DBB2BB753B6B1B0ADBB2BF
:102B000003F07F03DBB2FB753B6B5B08DBB203F0CA
:102B10007F03DBB23B763B6BDBB29B01DBB203F0A6
:102B20004003DBB287F8373079229421786804F0CB
:102B3000B5FD03461A4697F85F30134387F85F30B8
:102B40007868FFF733FD03461A4697F85F30134362
:102B500087F85F3007F130031A469021786804F057
:102B600081FE03461A4697F85F30134387F85F30BB
:102B70003B6B9B0EDBB203F07F03DAB297F8373082
:102B80001344DBB27B763B6BDB0CDBB203F07F03E1
:102B9000DBB2BB763B6B1B0BDBB203F07F03DBB21C
:102BA000FB763B6B5B09DBB203F07F03DBB23B7769
:102BB0003B6BDBB29B00DBB203F07C03DBB287F83C
:102BC00037307A229421786804F068FD03461A466B
:102BD00097F85F30134387F85F307868FFF7E6FCBB
:102BE00003461A4697F85F30134387F85F3007F1C2
:102BF00030031A469021786804F034FE03461A46E2
:102C000097F85F30134387F85F303B6B9B0FDBB265
:102C100003F07F03DAB297F837301344DBB27B77E7
:102C20003B6BDB0DDBB203F07F03DBB2BB773B6BAF
:102C30001B0CDBB203F07F03DBB2FB773B6B5B0A61
:102C4000DBB203F07F03DBB287F820303B6B9B08DD
:102C5000DBB203F07F03DBB287F82130002387F873
:102C60002230FB7803F00403002B00F0F18097F88A
:102C70003F3003F00403002B40F0EA807B229421D4
:102C8000786804F00BFD03461A4697F85F3013434B
:102C900087F85F307868FFF789FC03461A4697F893
:102CA0005F30134387F85F3007F128031A469021FD
:102CB000786804F0D7FD03461A4697F85F3013434F
:102CC00087F85F307C229421786804F0E7FC0346A3
:102CD0001A4697F85F30134387F85F307868FFF73C
:102CE00065FC03461A4697F85F30134387F85F3058
:102CF00007F124031A469021786804F0B3FD0346D7
:102D00001A4697F85F30134387F85F307322942197
:102D1000786804F0C3FC03461A4697F85F30134303
:102D200087F85F307868FFF741FC03461A4697F84A
:102D30005F30134387F85F3007F130031A46902164
:102D4000786804F08FFD03461A4697F85F30134306
:102D500087F85F303B6B1B029BB23B65742294216A
:102D6000786804F09BFC03461A4697F85F301343DB
:102D700087F85F307868FFF719FC03461A4697F822
:102D80005F30134387F85F3007F130031A46902114
:102D9000786804F067FD03461A4697F85F301343DE
:102DA00087F85F303B6B1B0E3A6D13433B65752212
:102DB0009421786804F072FC03461A4697F85F3055
:102DC000134387F85F307868FFF7F0FB03461A4635
:102DD00097F85F30134387F85F3007F130031A46E6
:102DE0009021786804F03EFD03461A4697F85F305C
:102DF000134387F85F303B6B1B029BB27B657622E7
:102E00009421786804F04AFC03461A4697F85F302C
:102E1000134387F85F307868FFF7C8FB03461A460C
:102E200097F85F30134387F85F3007F130031A4695
:102E30009021786804F016FD03461A4697F85F3033
:102E4000134387F85F303B6B1B0E7A6D13437B6532
:102E500000228121786804F021FC03461A4697F885
:102E60005F30134387F85F300622FF21786804F053
:102E700015FC03461A4697F85F30134387F85F3016
:102E800007F137031A468321786804F089FC03466A
:102E90001A4697F85F30134387F85F3097F837305A
:102EA00023F00403DBB21A468321786804F0F6FBB2
:102EB00003461A4697F85F30134387F85F300122C4
:102EC000FF21786804F0EAFB03461A4697F85F3062
:102ED000134387F85F3001220021786804F0DEFB9D
:102EE00003461A4697F85F30134387F85F30002295
:102EF000FF21786804F0D2FB03461A4697F85F304A
:102F0000134387F85F3000228021786804F0C6FB05
:102F100003461A4697F85F30134387F85F3097F9F6
:102F20005F30002B40F08F8097F83F30072B00F088
:102F30008A80FB7803F00103002B24D097F83F3000
:102F400003F00103002B1ED17B6897F85E2083F805
:102F500013217B6897F85D2083F814210023FB641C
:102F60000EE007F10802FB6C134419787A68FB6CD9
:102F7000134403F595730A461A70FB6C0133FB6426
:102F8000FB6C052BEDDDFB7803F00203002B18D062
:102F900097F83F3003F00203002B12D197F82F204F
:102FA0007B6883F8F12097F82E207B6883F8F22065
:102FB0007B68F333BB6307F110031946B86B08F065
:102FC0006BFEFB7803F00403002B30D097F83F3002
:102FD00003F00403002B2AD1BA6A7B68C3F81821D6
:102FE0007A6A7B68C3F81C213B6D5B023B647B689B
:102FF0003A6CC3F820210023A7F85A307B6D002BD0
:1030000011D07A6D7B6CD31ABB64BB6C4FF47A72AF
:1030100002FB03F31B09A7F85A30B7F85A305B429A
:103020009BB2A7F85A30B7F95A207B68DA6097F854
:103030003F20FB781343DBB287F8373097F837200F
:103040007B6883F8F0200C4B1C6808F095FD034664
:103050001A4697F95F300293084B01930092084B90
:103060006FF000422146012004F0A6F997F95F3085
:1030700018466437BD4690BDA407002024C9000847
:10308000E8C7000890B58BB004AF78600B46FB70C2
:103090001B4B1C6808F070FD03461A46194B019340
:1030A0000092194B6FF000422146012004F084F990
:1030B00040F277624FF00003C7E904234FF4106336
:1030C000FB60FB78FA6802FB03F33A6902FB03F347
:1030D000BB600B4B1C6808F04FFD03461A460B4BB8
:1030E0000293084B01930092094B6FF00042214676
:1030F000012004F061F9BB6818461C37BD4690BD3D
:10310000A407002044C90008D4C70008F8C7000875
:10311000E8C7000880B487B000AF78600023FB8266
:1031200000233B610023FB817B68002B17D07B6869
:10313000013B3B6105E03B695B083B61FB89013377
:10314000FB813B6923F0FF03002BF4D1FB891B02B9
:103150009AB23B699BB2DBB29BB21344FB82FB8AFF
:1031600018461C37BD465DF8047B704780B485B0B7
:1031700000AF0346FB800023FB60FB88DBB2FA88CC
:10318000120A92B293400133FB60FB681846143771
:10319000BD465DF8047B704780B588B000AFF8602D
:1031A000B9601346FB710023FB61FB791946F8688F
:1031B000FFF768FFB861BB6903F5FA730A4AA2FB1F
:1031C00003239B097B61BB684FF47A7203FB02F215
:1031D0007B695B081A447B69B2FBF3F3FB61FB6913
:1031E00018462037BD4680BDD34D621080B586B0ED
:1031F00000AF78600B467B8013467B7000237B61B9
:103200007B7819467868FFF73DFF38613B6903F525
:10321000FA730A4AA2FB03239B09FB607B88FA68C6
:1032200002FB03F303F5FA73044AA2FB03239B0991
:103230007B617B6918461837BD4680BDD34D62104F
:1032400080B58CB000AFF8600B467A60FB7200234B
:1032500087F82F30002387F820300023BB6200233B
:10326000FB830023BB84FB7A002B05D0FB7A012B68
:1032700002D0FB7A022B28D107F121031A46002144
:10328000F86802F00BFC034687F82F3097F92F30CF
:10329000002B09D107F120031A464621F86804F0F3
:1032A0007FFA034687F82F3097F820309BB21846F4
:1032B000FFF75CFF03467B8497F821207B8C19463F
:1032C000F868FFF793FFB86292E0FB7A032B35D1E1
:1032D00007F121031A460021F86802F0DFFB0346DC
:1032E00087F82F3097F92F30002B40F0818007F1BD
:1032F00021031A460021F86802F0D0FB034687F844
:103300002F3097F92F30002B09D107F11E031A46F1
:103310005121F86804F06EFA034687F82F30FB8BD2
:103320001846FFF723FF0346FB8497F82120FB8C08
:103330001946F868FFF75AFFB86259E0FB7A042B88
:1033400056D107F114031946F86802F033FD002343
:10335000FB84FB7D002B1DD007F121031A460021C1
:10336000F86802F09BFB034687F82F3097F92F305F
:10337000002B0FD107F11E031A465121F86804F003
:1033800039FA034687F82F30FB8B1846FFF7EEFE1D
:103390000346FB8497F92F30002B09D107F1210355
:1033A0001A460121F86802F079FB034687F82F30AE
:1033B00097F92F30002B0FD107F11C031A4671210A
:1033C000F86804F017FA034687F82F30BB8B1846CD
:1033D000FFF7CCFE0346BB84BA8CFB8CD31ABB84AC
:1033E00097F82120BB8C1946F868FFF7FFFEB862FA
:1033F0007B68BA6A1A6097F92F3018463037BD4695
:1034000080BD80B58AB000AFF8600B467A60FB7271
:10341000002387F82730FB7A002B05D0FB7A012B9D
:1034200002D0FB7A022B38D107F11B031A46002188
:10343000F86802F033FB034687F8273097F9273006
:10344000002B1AD1FB7E1A467968F868FFF7A4FEB4
:103450000346BB83BB8BB3F5807F03D9FF2387F87B
:10346000263004E0BB8BDBB2013B87F8263097F8AF
:1034700026309AB2FB68A3F8D82097F92730002BA2
:1034800040F0AB8097F826301A464621F86804F0E1
:1034900005F9034687F827309FE0FB7A032B35D1E7
:1034A00097F92730002B1BD107F11B031A46002187
:1034B000F86802F0F3FA034687F82730FB7E1A46D5
:1034C0007968F868FFF768FE0346BB84BB8C184632
:1034D000FFF720FE03463B833A8BFB68A3F8D82016
:1034E00097F92730002B08D13B8B1A465121F868F9
:1034F00004F0F8F8034687F8273097F92730002BB7
:103500006BD1FB687A68C3F8E42066E0FB7A042B91
:1035100060D107F110031946F86802F04BFC002354
:10352000BB84FB7C002B1DD007F11B031A46002136
:10353000F86802F0B3FA034687F8273097F9273086
:10354000002B0FD107F118031A465121F86804F037
:1035500051F9034687F827303B8B1846FFF706FEE4
:103560000346BB8497F92730002B09D107F11B03D1
:103570001A460121F86802F091FA034687F82730CD
:1035800097F92730002B28D1FB7E1A467968F86816
:10359000FFF702FE3862BB8C3A6A13443B62386A1A
:1035A000FFF7B8FD0346FB8397F92730002B08D1BE
:1035B000FB8B1A467121F86804F094F8034687F8EB
:1035C000273097F92730002B07D1FB687A68C3F8BA
:1035D000DC2002E0FC2387F8273097F927301846D3
:1035E0002837BD4680BD80B58AB000AF78600B46F5
:1035F000FB701346BB70002387F827300C2387F835
:103600002630122387F82530082387F824300E232C
:1036100087F823300023FB73BB7803F00103DBB290
:10362000002B03D0FC2387F8273020E0FB78002B09
:103630000DD1BA7897F826309A4204D3BA7897F821
:1036400025309A4203D9FC2387F827300FE0FB7816
:10365000012B0CD1BA7897F824309A4204D3BA7867
:1036600097F823309A4202D9FC2387F8273097F93C
:103670002730002B02D097F9273039E2FB78002B56
:1036800050D1BB780C2B10D118225721786804F048
:1036900005F8034687F8273008225621786803F09A
:1036A000FDFF034687F827307FE1BB780E2B10D152
:1036B00030225721786803F0F1FF034687F827305E
:1036C00008225621786803F0E9FF034687F827307F
:1036D0006BE1BB78102B10D140225721786803F0A2
:1036E000DDFF034687F8273008225621786803F06B
:1036F000D5FF034687F8273057E1BB78122B40F0FF
:10370000548150225721786803F0C8FF034687F898
:10371000273008225621786803F0C0FF034687F857
:10372000273042E1FB78012B40F03F81BB78082B2A
:103730004CD110224821786803F0B0FF034687F887
:10374000273008224721786803F0A8FF034687F84E
:10375000273002223221786803F0A0FF03461A4680
:1037600097F82730134387F827300C2230217868E8
:1037700003F094FF03461A4697F82730134387F85F
:1037800027300122FF21786803F088FF03461A469C
:1037900097F82730134387F8273030223021786894
:1037A00003F07CFF03461A4697F82730134387F847
:1037B00027300022FF21786803F070FF03461A4685
:1037C00097F82730134387F82730EEE0BB780A2BB1
:1037D0004CD128224821786803F060FF034687F81F
:1037E000273008224721786803F058FF034687F8FE
:1037F000273003223221786803F050FF03461A462F
:1038000097F82730134387F827300922302178684A
:1038100003F044FF03461A4697F82730134387F80E
:1038200027300122FF21786803F038FF03461A464B
:1038300097F82730134387F8273020223021786803
:1038400003F02CFF03461A4697F82730134387F8F6
:1038500027300022FF21786803F020FF03461A4634
:1038600097F82730134387F827309EE0BB780C2B5E
:103870004CD138224821786803F010FF034687F8BE
:10388000273008224721786803F008FF034687F8AD
:10389000273003223221786803F000FF03461A46DE
:1038A00097F82730134387F82730082230217868AB
:1038B00003F0F4FE03461A4697F82730134387F8BF
:1038C00027300122FF21786803F0E8FE03461A46FC
:1038D00097F82730134387F8273020223021786863
:1038E00003F0DCFE03461A4697F82730134387F8A7
:1038F00027300022FF21786803F0D0FE03461A46E5
:1039000097F82730134387F827304EE0BB780E2B0B
:103910004BD148224821786803F0C0FE034687F85F
:10392000273008224721786803F0B8FE034687F85D
:10393000273003223221786803F0B0FE03461A468E
:1039400097F82730134387F827300722302178680B
:1039500003F0A4FE03461A4697F82730134387F86E
:1039600027300122FF21786803F098FE03461A46AB
:1039700097F82730134387F82730202230217868C2
:1039800003F08CFE03461A4697F82730134387F856
:1039900027300022FF21786803F080FE03461A4694
:1039A00097F82730134387F8273097F92730002BF3
:1039B0007FD1BB781846FEF7B2FD034687F8223068
:1039C000FB78002B02D0012B45D06EE007F11403E9
:1039D0001A4603217868FFF733FC034687F827303F
:1039E00097F92730002B09D107F110031A4602215D
:1039F0007868FFF725FC034687F8273097F92730CA
:103A0000002B09D197F822301A465021786803F02C
:103A100045FE034687F8273097F92730002B08D159
:103A20007B691A4603217868FFF7EBFC034687F8A9
:103A3000273097F92730002B08D13B691A4602211D
:103A40007868FFF7DEFC034687F827307B68BA7892
:103A500083F8E8202EE007F118031A46042178685D
:103A6000FFF7EEFB034687F8273097F92730002B46
:103A700009D197F822301A467021786803F00EFEBB
:103A8000034687F8273097F92730002B08D1BB6908
:103A90001A4604217868FFF7B4FC034687F82730FC
:103AA0007B68BA7883F8E02004E0FC2387F82730AD
:103AB00000E000BF97F92730002B09D17B685B69D4
:103AC000FB61F969786801F029FF034687F8273020
:103AD00097F92730002B09D107F10F0101230022AC
:103AE0007868FEF70BFC034687F8273097F92730F4
:103AF00018462837BD4680BD80B586B000AFF86057
:103B00000B467A60FB720023FB75FB7A002B02D018
:103B1000012B0AD013E007F116031A465021F8686A
:103B200003F03EFE0346FB750BE007F116031A4651
:103B30007021F86803F034FE0346FB7501E0FC23B6
:103B4000FB7597F91730002B07D1BB7D1846FEF7A0
:103B5000D3FC03461A467B681A7097F9173018464B
:103B60001837BD4680BD000090B597B004AF7860AF
:103B70003960002387F847304FF4FA633B6140F225
:103B80007673FB634FF47073BB634FF425737B63F1
:103B900040F24E233B6340F2B223FB624FF42573A5
:103BA000BB6240F226237B620023FB6044F6206365
:103BB0003B620023FB61814B1C6807F0DDFF03467D
:103BC0001A467F4B019300927E4B6FF000422146D4
:103BD000012003F0F1FB3A683B6A9A4205D2FC23CC
:103BE00087F8473097F94730E3E0FA6BBB6B134433
:103BF0003A68D31A3B6407F114031946786802F057
:103C0000D9F8034687F8473097F94730002B6ED133
:103C10003B7D002B05D17B7D002B02D1BB7D002B92
:103C200065D007F110031A4602217868FFF708FBF8
:103C3000034687F8473097F94730002B02D097F9B1
:103C40004730B6E03B7D002B0FD03B693A6B134405
:103C5000FB61FA693B6C9A4204D23A6CFB69D31A55
:103C60003B6402E0FC2387F8473097F94730002B8C
:103C700015D0524B1C6807F07FFF03461A4697F990
:103C8000473002934E4B019300924F4B6FF000422E
:103C90002146012003F090FB97F9473089E0BB7D76
:103CA000002B11D03A69FB6A13445B00FB61FA698F
:103CB0003B6C9A4204D23A6CFB69D31A3B6416E01F
:103CC000FC2387F8473012E07B7D002B0FD03B6947
:103CD0007A6B1344FB61FA693B6C9A4204D23A6CEA
:103CE000FB69D31A3B6402E0FC2387F8473097F95D
:103CF0004730002B15D0314B1C6807F03DFF0346C1
:103D00001A4697F9473002932D4B019300922E4BA0
:103D10006FF000422146012003F04EFB97F9473037
:103D200047E0FB7D002B19D007F10C031A46032155
:103D30007868FFF785FA034687F84730FB68BA6A68
:103D40001344FB61FA693B6C9A4204D23A6CFB69FA
:103D5000D31A3B6402E0FC2387F8473097F94730D9
:103D6000002B11D13B7E002B0ED03A6C7B6AD31A0C
:103D70003B643A6C04217868FFF743FB034687F8FD
:103D800047307B683A685A610C4B1C6807F0F4FEB8
:103D900003461A4697F947300293094B0193009264
:103DA000094B6FF000422146012003F005FB97F913
:103DB000473018464C37BD4690BD00BFA4070020D1
:103DC00064C90008D4C70008E8C7000890B595B0DA
:103DD00004AF78603960002387F83F304FF4FA630E
:103DE0003B6140F27673BB634FF470737B634FF4B7
:103DF00025733B6340F24E23FB6240F2B223BB6269
:103E00004FF425737B6240F226233B620023FB6064
:103E1000624B1C6807F0B0FE03461A46604B0193E4
:103E20000092604B6FF000422146012003F0C4FA7B
:103E3000BA6B7B6B1A443B681A6007F1180319468A
:103E4000786801F0B7FF034687F83F3097F93F30B5
:103E5000002B15D0514B1C6807F08EFE03461A4606
:103E600097F93F3002934E4B019300924E4B6FF007
:103E700000422146012003F09FFA97F93F3088E085
:103E80003B7E002B05D17B7E002B02D1BB7E002B1D
:103E900030D007F110031A4602217868FFF7D0F9F5
:103EA000034687F83F3097F93F30002B22D13B7E05
:103EB000002B07D03B681A683969FB6A0B441A4427
:103EC0003B681A60BB7E002B09D03B681A683969D1
:103ED000BB6A0B445B001A443B681A600AE07B7EB5
:103EE000002B07D03B681A6839693B6B0B441A44B6
:103EF0003B681A6097F93F30002B14D1FB7E002BF2
:103F000011D007F10C031A4603217868FFF798F9DE
:103F1000034687F83F303B681A68F9687B6A0B44B0
:103F20001A443B681A6097F93F30002B14D13B7F4D
:103F3000002B11D007F114031A4604217868FFF70B
:103F40007FF9034687F83F303B681A6879693B6A16
:103F50000B441A443B681A6097F93F30002B03D199
:103F60003B681A687B685A610C4B1C6807F004FEBA
:103F700003461A4697F93F300293094B019300928A
:103F8000094B6FF000422146012003F015FA97F922
:103F90003F3018464437BD4690BD00BFA4070020FF
:103FA00098C90008D4C70008E8C7000890B58DB0CC
:103FB00004AF786039600023FB777F4B1C6807F003
:103FC000DBFD03461A467D4B019300927C4B6FF05C
:103FD00000422146012003F0EFF900237B61C6E097
:103FE0007B693A6813441B78FB747B6901337B61FE
:103FF000FB7CFF2B40F08D807B693A6813441B7873
:104000007B747B6901337B617B7C032B7ED801A2AF
:1040100052F823F0254000085F400008994000084E
:10402000D34000087B693A6813441B783B747B6972
:1040300001337B617B693A6813441B78FB737B69AE
:1040400001337B613B7C9BB21B029AB2FB7B9BB230
:104050001344BB817B68BA89A3F8342187E07B696C
:104060003A6813441B783B747B6901337B617B693D
:104070003A6813441B78FB737B6901337B613B7C9B
:104080009BB21B029AB2FB7B9BB21344BB817B6841
:10409000BA89A3F836216AE07B693A6813441B7831
:1040A0003B747B6901337B617B693A6813441B78FD
:1040B000FB737B6901337B613B7C9BB21B029AB231
:1040C000FB7B9BB21344BB817B68BA89A3F8382180
:1040D0004DE07B693A6813441B783B747B6901337C
:1040E0007B617B693A6813441B78FB737B690133FE
:1040F0007B613B7C9BB21B029AB2FB7B9BB213445D
:10410000BB817B68BA89A3F83C2130E0FC23FB77B4
:104110002DE0FB7C042B28D87B693A6813441B787C
:10412000BB747B6901337B610023BB610FE07B695A
:104130003A681344197807F10802BB6913440A4628
:104140001A707B6901337B61BB690133BB61FB7C06
:10415000BA699A42EBDBFB7C07F10802B97C78680C
:1041600003F040FA0346FB7701E0FC23FB777B6911
:104170003A6813441B78002B04D097F91F30002BAA
:104180003FF42EAF0C4B1C6807F0F6FC03461A46B2
:1041900097F91F300293094B01930092094B6FF07E
:1041A00000422146012003F007F997F91F30184615
:1041B0002437BD4690BD00BFA4070020CCC900082D
:1041C000D4C70008E8C7000880B588B000AFF86021
:1041D000B9607A600023FB777B6800221A6007F1E0
:1041E00013031946F86801F0C9FE0346FB7797F9F7
:1041F0001F30002B11D1FB7C002B0ED0FB681B6AFB
:10420000BB61BB689B8A1A46BB6902FB03F37B61F7
:104210007B6980331A0A7B681A6097F91F30184649
:104220002037BD4680BD000090B589B002AFF86070
:10423000B9607A600023FB75164B1C6807F09CFC84
:1042400003461A46144B01930092144B6FF0004240
:104250002146012003F0B0F8BB68DA687B681A6079
:1042600007F110031A46B968F868FFF7ADFF034677
:10427000FB7597F91730002B05D17B681A683B69ED
:104280001A447B681A6097F9173018461C37BD46E8
:1042900090BD00BFA4070020ECC90008D4C70008E7
:1042A00090B59FB004AFF860B9607A603B601223AC
:1042B0007B654FF480433B654223FB640623BB646C
:1042C00007237B64002387F84330944B1C6807F076
:1042D00053FC03461A46924B01930092914B6FF0A8
:1042E00000422146012003F067F8FB68B3F854311F
:1042F000FB63FB68D3F85831BB63FB6BBA6B02FB03
:1043000003F37B637B6B80331B0A7B637B6BFA6BF2
:1043100002FB03F37B6300237B667B68002B1AD0D0
:10432000BB689B023B637B685B083A6B13447B660C
:104330007A6E7B68B2FBF3F37B667A6E13465B00A2
:1043400013447B667B6E03FB03F37B667B6E03F596
:1043500000431B0C7B663B68BA6F02FB03F3FB62F6
:10436000FB6A03F500431B0CFB62FB6A03FB03F3D0
:10437000FB62FB6F03F500431B0CBB62BB6C5A086E
:10438000BB6A1A44BB6CB2FBF3F3BB62BB6A7A6CC8
:1043900002FB03F3BB62BB6AB3F5803F02D3624BFF
:1043A0003B6615E0BB6C5A08FB6F1A44BB6CB2FB52
:1043B000F3F3FB67FB6F7A6C02FB03F3FB67FB6FA6
:1043C00003F500431B0C3B663B6E03FB03F33B66AC
:1043D0007B6D9B0303F5FA73544AA2FB03239B09ED
:1043E0007B627B6A03FB03F37B62FB6C03FB03F3DF
:1043F0003B623B6A08331B093B627A6A3B6AD31A09
:104400007B627A6A13465B0013441B01FB61FB6904
:1044100003F500539B0BFB61FA6A3B6E1344BB61CF
:10442000D7F880305B08BA691344BB61BA69D7F822
:104430008030B2FBF3F3BB61BB699B03BB61FB69DB
:104440005B08BA691344BB61BA69FB69B2FBF3F359
:10445000BB61BB697A6E02FB03F3BB61BB6903F509
:10446000FA73324AA2FB03239B09BB61BB691B01A0
:10447000BB61BB6903F5FA732C4AA2FB03239B09BA
:10448000BB613B6D80331B0A7B617B69002B08D0CD
:104490007B695A087B6B1A447B69B2FBF3F3BB65FB
:1044A00001E00023BB65B86DFEF74CF83861BB69CD
:1044B000002B08D0BB695A087B6B1A44BB69B2FB5E
:1044C000F3F3FB6501E00023FB65F86DFEF73AF8B6
:1044D000F865D7F884303A691A603A69FB6D9A42F8
:1044E00003D9D7F88430FA6D1A600C4B1C6807F0BA
:1044F00043FB03461A4697F943300293084B019356
:1045000000920B4B6FF000422146012002F054FF55
:1045100097F9433018466C37BD4690BDA40700207C
:104520000CCA0008D4C700080000F0FFD34D621089
:10453000E8C7000890B5B5B004AFF860B9607A601C
:104540003B604FF44873C7F890304FF41673C7F8C8
:104550008C304FF4C813C7F8883041F25C23C7F899
:104560008430AF4BC7F880304FF47043FB674FF097
:104570007042D7F88C30B2FBF3F3BB67A94B7B6773
:104580004FF400433B674FF44813FB6640F27763F8
:10459000BB66002387F89F30A34B1C6807F0ECFA3A
:1045A00003461A46A14B01930092A14B6FF00042C3
:1045B0002146012002F000FFFB681B6A7B61BB689B
:1045C0001B694FF47A7202FB03F31B0C7B66BB681A
:1045D000DB683B6607F110031A46B968F868FFF715
:1045E00023FE034687F89F3007F114031A46B96883
:1045F000F868FFF7E9FD034687F89F303B694FF401
:104600007A7202FB03F3FB65FB6D03F500431B0CA1
:10461000FB657B694FF47A7202FB03F3C7F8A030A5
:10462000D7F8A020FB6E9A4202D9FB6EC7F8A030E3
:1046300097F99F30002B68D1FB68D3F8DC30C7F8BE
:10464000B830FB6893F8E03087F85B3097F85B3060
:104650001A46D7F8B810F868FEF79EFD7865FB6833
:10466000D3F8E430C7F8B430FB6893F8E83087F843
:10467000533097F853301A46D7F8B410F868FEF75D
:104680008BFDF8640323C7F8983097F85B30082B4C
:1046900002D10223C7F89830FA6C7B6D1344D7F827
:1046A000982002FB03F3DB02C7F89430D7F894306C
:1046B00003F5FA735F4AA2FB03239B09C7F8943002
:1046C000D7F89430BA6E02FB03F3C7F89430D7F8EA
:1046D000943003F5FA73574AA2FB03239B09C7F8EA
:1046E00094303B6980331B0A3B613A69D7F89430B8
:1046F00002FB03F3C7F8BC30D7F8BC3080331B0A89
:10470000C7F8BC303B691B023B6197F99F30002B17
:1047100015D0454B1C6807F02FFA03461A4697F947
:104720009F300293414B01930092434B6FF0004244
:104730002146012002F040FE97F99F3078E1FB6DA1
:10474000002B0CD17B68D7F880201A60FB68D7F863
:104750008020C3F840213B6800221A6053E1D7F85B
:10476000BC30002B02D10123C7F8BC30D7F8903001
:10477000BB647B6E1A04FB6DB2FBF3F3C7F8B03079
:10478000D7F8B020BB6F9A4202D9BB6FC7F8B030E0
:10479000D7F8B030D7F88C2002FB03F3C7F8B0305D
:1047A000D7F8BC2013465B0013449B001846FDF766
:1047B000C9FE03465B007B64BB681B891A467B6F9E
:1047C00002FB03F33B64FB6D1A04D7F8A0305B00D7
:1047D000D31A03F5FA73174AA2FB03239B09FB6361
:1047E000FB6D1B0403F5FA73124AA2FB03239B091A
:1047F000BB63FB6B1B02FB63FA6BBB6BB2FBF3F39C
:10480000002BB8BF5B427B637B6B1B027B63BB6887
:104810001B7E002B12D04FF48033C7F8AC303AE047
:10482000AE878F029A990600A407002020CA0008CC
:10483000D4C70008D34D6210E8C700083A6CD7F817
:104840008430B2FBF3F3C7F8AC307B6BC3F5803236
:10485000D7F8AC3002FB03F3C7F8AC30D7F8AC2084
:104860003B6F13441B0CC7F8AC30D7F8AC3003F5E2
:104870008033C7F8AC30D7F8AC305B08C7F8AC3041
:10488000D7F8AC3003FB03F3C7F8AC30D7F8AC3043
:104890009B0BC7F8AC30D7F8AC30BA6C02FB03F313
:1048A0003B633B6B03F500431B0C3B633B6B03FB20
:1048B00003F33B63D7F8B030FB62FB6A03F50043B8
:1048C0001B0CFB62FB6A03FB03F3FB623A6BFB6AA4
:1048D0001344BB62B86AFDF735FE78627B6A1B043D
:1048E0007B627B6A3233544AA2FB03235A097B6CF6
:1048F000B2FBF3F3C7F8A830D7F8A83040F6B532CA
:1049000002FB03F3C7F8A830D7F8A83003F59C538F
:104910000833C7F8A830D7F8A830484AA2FB0323C9
:104920005B0BC7F8A830D7F8A820FB6F9A4202D9D2
:10493000FB6FC7F8A830D7F8B820D7F8B4301344C5
:1049400003F5FA733E4AA2FB03239B093B623B6AD1
:104950005A08D7F888301A443B6AB2FBF3F318467A
:10496000FDF7F0FDF861FB691B02FB61FB6903F5D4
:10497000FA73334AA2FB03239B09FB61D7F8A830E3
:1049800003FB03F33B63FB6903FB03F3FB623A6B3B
:10499000FB6A13441846FDF7D5FDB861BB694FF4B7
:1049A0007A7202FB03F3C7F8A430FB6D002B09D029
:1049B000D7F8BC30002B05D0D7F8A420D7F880302A
:1049C0009A4203D9D7F88030C7F8A4307B68D7F86B
:1049D000A4201A607B681A68FB68C3F84021396913
:1049E0003B680393D7F894300293D7F8B030019323
:1049F000BB6C0093D7F8AC303A6EF868FFF750FC08
:104A0000034687F89F300F4B1C6807F0B5F8034644
:104A10001A4697F99F3002930B4B019300920B4B70
:104A20006FF000422146012002F0C6FC97F99F304A
:104A30001846C437BD4690BD1F85EB515917B7D1F5
:104A4000D34D6210A407002020CA0008E8C7000860
:104A500090B595B004AFF8607A601A460B46FB72C9
:104A600013463B81002387F83F30002387F83D3011
:104A7000002387F83C30002387F83B30002387F879
:104A80002B30002387F82A30002387F829300023B1
:104A900087F82830002387F832300023FB82002378
:104AA0003B61AA4B1C6807F067F803461A46A84BFF
:104AB00001930092A74B6FF000422146012002F0C3
:104AC0007BFCFB7ADB10DBB203F00F0387F832309C
:104AD00097F83230002B17D097F83230052B13D0CF
:104AE00097F83230072B0FD097F832300C2B0BD0C1
:104AF00097F832300D2B07D097F832300E2B03D0B9
:104B000097F832300F2B03D1012387F83E3002E0B3
:104B1000002387F83E3097F93F30002B09D107F189
:104B20002B031A460021F86801F07CFB034687F846
:104B30003F3097F82B30002B2ED097F93F30002BC9
:104B40002AD107F1100307F12402396DF868FFF745
:104B5000F1FC034687F83F3097F93F30002B03D133
:104B60003B699AB23B6D5A8197F93F30002B13D1C4
:104B700007F120031A460021F86801F02BFC0346D8
:104B800087F83F303B6A002B06D07A6A3B6A9A422C
:104B900002D9012387F83D3097F93F30002B09D126
:104BA00007F129031A460221F86801F03BFB03468E
:104BB00087F83F3097F82930002B44D097F93F30E1
:104BC000002B40D107F11C031A460221F86801F0BE
:104BD00001FC034687F83F3097F93F30002B07D19F
:104BE0000122FF21F86802F059FD034687F83F30A3
:104BF00097F93F30002B09D107F116031A46B62169
:104C0000F86802F0F7FD034687F83F3097F93F3028
:104C1000002B07D10022FF21F86802F03FFD034678
:104C200087F83F30FB8A5B02FB62FB68FA6AC3F8D5
:104C30004821FB69002B06D0FB69FA6A9A4202D927
:104C4000012387F83C3097F93F30002B09D107F159
:104C500028031A460321F86801F0E4FA034687F8AE
:104C60003F3097F82830002B23D097F93F30002BA6
:104C70001FD13B89002B02D100237B6305E07B68B9
:104C80001A023B89B2FBF3F37B6307F118031A4660
:104C90000321F86801F09EFB034687F83F30BB69AB
:104CA000002B06D0BB697A6B9A4202D2012387F8A7
:104CB0003B3097F93F30002B51D197F83E30012B14
:104CC00003D17B6DFF221A7049E097F83230012B37
:104CD00007D097F83230022B03D097F83230032BED
:104CE00003D17B6D05221A7039E097F83230062B1C
:104CF00003D097F83230092B03D17B6D04221A7050
:104D00002DE097F83230082B07D097F832300A2B75
:104D100003D097F83C30012B03D17B6D03221A702E
:104D20001DE097F83230042B03D097F83B30012B6D
:104D300003D17B6D02221A7011E097F83D30012BF0
:104D40000AD17B6D01221A7009E000BFA407002080
:104D50003CCA0008D4C700087B6D00221A707B6D26
:104D60001B78002B02D13B6D00225A8107F12A03E8
:104D70001A460121F86801F055FA034687F83F30DA
:104D800097F93F30002B4FD197F82B30002B03D0F1
:104D900097F83D30012B03D1012387F8333002E02F
:104DA000002387F83330FB6897F8332083F82E20F0
:104DB00097F83230042B03D097F82A30002B03D118
:104DC000012387F8333002E0002387F83330FB6893
:104DD00097F8332083F82F2097F82930002B03D041
:104DE00097F83C30012B03D1012387F8333002E0E0
:104DF000002387F83330FB6897F8332083F830209E
:104E000097F82830002B03D097F83B30012B03D1C3
:104E1000012387F8333002E0002387F83330FB6842
:104E200097F8332083F831200C4B1C6806F0A4FE61
:104E300003461A4697F93F300293094B01930092BB
:104E4000084B6FF000422146012002F0B5FA97F9B5
:104E50003F3018464437BD4690BD00BFA407002030
:104E60003CCA0008E8C7000890B589B004AF786074
:104E700039600023FB73174B1C6806F07DFE034668
:104E80001A46154B01930092144B6FF000422146D5
:104E9000012002F091FA39687868FCF748FC034673
:104EA000FB730C4B1C6806F067FE03461A4697F925
:104EB0000F300293084B01930092094B6FF00042B0
:104EC0002146012002F078FA97F90F30184614377E
:104ED000BD4690BDA40700205CCA0008FCC70008BE
:104EE00010C8000890B589B004AF78600B46FB701D
:104EF0000023FB73194B1C6806F03EFE03461A465E
:104F0000174B01930092174B6FF00042214601208E
:104F100002F052FAFB785B08DBB21A468A21786805
:104F200002F0BCFB0346FB730C4B1C6806F024FE2E
:104F300003461A4697F90F300293094B01930092EA
:104F4000094B6FF000422146012002F035FA97F933
:104F50000F3018461437BD4690BD00BFA40700208F
:104F600088CA0008FCC7000810C80008B0B59AB08D
:104F700004AF7860002387F85730BD4B1C6806F0FB
:104F8000FBFD03461A46BB4B01930092BA4B6FF0F0
:104F900000422146012002F00FFA97F95730002B0A
:104FA00007D100228821786802F078FB034687F851
:104FB00057307B68002283F8F0207B684FF47A72C8
:104FC000A3F852217B684FF4C872A3F854217B6880
:104FD000AA4AC3F858217B68A94AC3F8D4207B6841
:104FE00000221A6207F110031946786800F0FEFAF1
:104FF000034687F8573097F95730002B12D100231A
:105000003B7400237B747B6803F1100407F11005E7
:105010000FCD0FC40FCD0FC40FCD0FC495E80F00F7
:1050200084E80F007B686422A3F834217B684FF486
:105030006172A3F836217B684FF4FA72A3F8382125
:105040007B684FF42062A3F83C217B68012283F83F
:10505000502101228021786802F020FB03461A4685
:1050600097F85730134387F857300122FF217868AB
:1050700002F014FB03461A4697F85730134387F89B
:10508000573000220021786802F008FB03461A46D8
:1050900097F85730134387F8573007F10F031A4634
:1050A0009121786802F07CFB03461A4697F8573046
:1050B000134387F85730FA7B7B6883F83A21012243
:1050C0000021786802F0EAFA03461A4697F857304A
:1050D000134387F857300022FF21786802F0DEFA88
:1050E00003461A4697F85730134387F85730002283
:1050F0008021786802F0D2FA03461A4697F85730B2
:10510000134387F8573000233B6514E097F9573075
:10511000002B14D13B6D9BB201221946786800F038
:10512000C9FF03461A4697F85730134387F857309C
:105130003B6D01333B653B6D052BE7DD00E000BFB8
:1051400097F95730002B07D100220221786800F030
:10515000B1FF034687F8573097F95730002B07D136
:1051600000220321786800F0A5FF034687F8573036
:1051700097F95730002B07D100220421786800F0FE
:1051800099FF034687F8573097F95730002B07D11E
:1051900000220521786800F08DFF034687F857301C
:1051A00097F95730002B08D14FF4901200217868FE
:1051B00001F084F8034687F8573097F95730002BF1
:1051C00008D14FF480420121786801F077F8034656
:1051D00087F8573097F95730002B08D14FF40C124D
:1051E0000221786801F06AF8034687F8573097F98A
:1051F0005730002B07D100220321786801F05EF8B8
:10520000034687F8573097F95730002B0FD17B684A
:10521000FF2283F83021FF220121786802F03EFA54
:10522000034687F857307B68012283F8322197F9CB
:105230005730002B03D17B68002283F815210C4BDB
:105240001C6806F099FC03461A4697F957300293FA
:10525000084B019300920B4B6FF000422146012056
:1052600002F0AAF897F9573018465837BD46B0BD36
:10527000A4070020A4CA0008FCC70008856B010031
:10528000A470090010C80008B0B5A0B004AF7860E1
:10529000002387F86F3007F11C03402200211846D5
:1052A00006F0D2FC00237B8300237B76002387F863
:1052B000673000233B6600233B7600237B6100239D
:1052C00087F85F302D4B1C6806F056FC03461A46E3
:1052D0002B4B019300922B4B6FF000422146012093
:1052E00002F06AF801217868FDF7CEF9034687F8E5
:1052F0006F307B6893F813313B667B6893F8143109
:1053000087F85F3097F85F30012B0DD897F85F3042
:10531000012B02D13B6E202B06D897F85F30002B73
:105320000ED13B6E0C2B0BD907F1180207F11403B9
:1053300019467868FCF7F6FB034687F86F3009E0FA
:1053400097F85F301A46396E7868FCF7F7FD034628
:1053500087F86F300C4BBB6697F96F30002B17D175
:105360007B6893F8503187F8673097F86730002BE7
:105370000CD17B68D3F84C31BB6609E0A407002050
:10538000B8CA0008FCC70008F8040020934BBB66AD
:1053900097F96F30002B06D1B96E7868FEF706FEDC
:1053A000034687F86F3097F96F30002B0AD100233E
:1053B0000093042300220021786801F02FFD0346AA
:1053C00087F86F3097F96F30002B21D10122FF2130
:1053D000786802F063F9034687F86F3007F11A0323
:1053E0001A468421786802F005FA03461A4697F8AF
:1053F0006F30134387F86F300022FF21786802F086
:105400004DF903461A4697F86F30134387F86F300B
:1054100097F96F30002B05D17B8B1B011A467B68F7
:10542000C3F8D42097F96F30002B08D107F11C0383
:105430001946786800F0DAF8034687F86F3097F974
:105440006F30002B10D107F119031946786800F06E
:105450001BFA034687F86F3097F96F30002B03D1A2
:105460007A7E7B6883F8312197F96F30002B0ED15B
:105470007B6803F1100407F11C050FCD0FC40FCD9D
:105480000FC40FCD0FC495E80F0084E80F0097F903
:105490006F30002B11D107F119031A4601217868EA
:1054A00002F07EF9034687F86F3097F96F30002BD2
:1054B00003D17A7E7B6883F8302197F96F30002B17
:1054C00007D100220021786800F02AFB034687F804
:1054D0006F3097F96F30002B07D1002202217868D6
:1054E00000F01EFB034687F86F3097F96F30002BF2
:1054F00003D17B68032283F8322197F96F30002BA8
:1055000009D107F113031A460021786800F0C6FAA2
:10551000034687F86F3097F96F30002B03D1FA7C80
:105520007B6883F8E82097F96F30002B09D107F1E9
:1055300013031A460121786800F0B0FA034687F891
:105540006F3097F96F30002B03D1FA7C7B6883F8BA
:10555000E02097F96F30002B09D107F10C031A46B0
:1055600003217868FDF76CFE034687F86F3097F9E2
:105570006F30002B03D1FA687B68C3F8E42097F9F9
:105580006F30002B09D107F10C031A46042178680B
:10559000FDF756FE034687F86F3097F96F30002B02
:1055A00003D1FA687B68C3F8DC200D4B1C6806F059
:1055B000E3FA03461A4697F96F300293094B0193B9
:1055C0000092094B6FF000422146012001F0F4FEE9
:1055D00097F96F3018467037BD46B0BDF80400200B
:1055E000A4070020B8CA000810C8000890B589B008
:1055F00004AF786039600023FB73564B1C6806F0DB
:10560000BBFA03461A46544B01930092534B6FF07A
:1056100000422146012001F0CFFE3B681946786820
:1056200000F0F6F80346FB7397F90F30002B07D113
:105630003B6808331946786800F040FC0346FB736A
:1056400097F90F30002B02D13B6800221A7397F9AB
:105650000F30002B07D13B6810331946786800F0F3
:10566000CBFC0346FB7397F90F30002B07D13B6847
:10567000143319467868FFF7F7FB0346FB7397F975
:105680000F30002B34D10023BB602AE097F90F3094
:10569000002B2AD1BB6899B2BB6808339B003A68DB
:1056A000134404331A46786800F094FE03461A4601
:1056B000FB7B1343FB7397F90F30002B17D1BB68AB
:1056C00099B2BB6818333A6813441A46786800F0F8
:1056D000A9FD03461A46FB7B1343FB73BB680133EA
:1056E000BB60BB68052BD1DD02E000BF00E000BF5E
:1056F00097F90F30002B07D13B683C331946786887
:1057000000F020FF0346FB7397F90F30002B07D101
:105710003B6804331946786800F03EF90346FB7392
:105720000C4B1C6806F028FA03461A4697F90F300E
:105730000293094B01930092094B6FF000422146FE
:10574000012001F039FE97F90F3018461437BD4695
:1057500090BD00BFA4070020CCCA0008FCC7000809
:1057600010C8000890B589B004AF78600B46FB7094
:105770000023FB73214B1C6806F0FEF903461A4612
:10578000FB7802931E4B019300921E4B6FF0004278
:105790002146012001F010FEFB78152B8CBF012261
:1057A0000022D2B2002A0ED101229A40164B134099
:1057B000002B14BF01230023DBB2002B03D07B6836
:1057C000FA781A7401E0F823FB730C4B1C6806F09E
:1057D000D3F903461A4697F90F300293084B019309
:1057E00000920A4B6FF000422146012001F0E4FDD7
:1057F00097F90F3018461437BD4690BDA407002016
:10580000E8CA000820C800080B00300010C80008D3
:1058100090B589B004AF786039600023FB73164BF4
:105820001C6806F0A9F903461A46144B019300922E
:10583000134B6FF000422146012001F0BDFD7B6853
:105840001A7C3B681A700C4B1C6806F095F90346ED
:105850001A4697F90F300293084B01930092094BB7
:105860006FF000422146012001F0A6FD97F90F30AC
:1058700018461437BD4690BDA407002000CB000891
:10588000FCC7000810C8000890B589B004AF786064
:1058900039600023FB731D4B1C6806F06DF903464D
:1058A0001A461B4B019300921A4B6FF0004221469F
:1058B000012001F081FD3A680921786801F070FF4C
:1058C0000346FB7397F90F30002B06D13B681B781A
:1058D00003F00103DAB23B681A700C4B1C6806F047
:1058E0004BF903461A4697F90F300293084B019380
:1058F0000092094B6FF000422146012001F05CFD4F
:1059000097F90F3018461437BD4690BDA407002004
:1059100018CB0008FCC7000810C8000890B589B073
:1059200004AF786039600023FB73174B1C6806F0E6
:1059300023F903461A46154B01930092144B6FF05E
:1059400000422146012001F037FD39687868FEF7F2
:105950000BF90346FB730C4B1C6806F00DF903466C
:105960001A4697F90F300293084B01930092094BA6
:105970006FF000422146012001F01EFD97F90F3023
:1059800018461437BD4690BDA407002034CB00084C
:10599000FCC7000810C8000890B589B004AF786053
:1059A00039600023FB73174B1C6806F0E5F80346CB
:1059B0001A46154B01930092144B6FF0004221469A
:1059C000012001F0F9FC39687868FEF7FFF9034619
:1059D000FB730C4B1C6806F0CFF803461A4697F988
:1059E0000F300293084B01930092094B6FF0004275
:1059F0002146012001F0E0FC97F90F3018461437DA
:105A0000BD4690BDA407002064CB0008FCC7000879
:105A100010C8000890B589B004AF78600B46FB70E1
:105A20001346BB700023FB73184B1C6806F0A4F8E8
:105A300003461A46164B01930092164B6FF0004234
:105A40002146012001F0B8FCBA78FB781946786845
:105A5000FDF7C9FD0346FB730C4B1C6806F08CF880
:105A600003461A4697F90F300293094B01930092AF
:105A7000094B6FF000422146012001F09DFC97F98F
:105A80000F3018461437BD4690BD00BFA407002054
:105A900094CB0008FCC7000810C8000890B58BB074
:105AA00004AFF8600B467A60FB720023FB75184B5D
:105AB0001C6806F061F803461A46164B01930092E3
:105AC000154B6FF000422146012001F075FCFB7A76
:105AD0007A681946F868FEF70FF80346FB750C4B19
